:020000040000FA
:0400000080313728EC
:100008007E1480310B1F09280A2835284E01191E35
:100018000E280F281A280F1E122813281A28400104
:1000280062088A0061080A0080313528991E1D2857
:100038001E2829288F1E21282228292840016008E7
:100048008A005F080A0080313528171C2C282D28C3
:1000580035280D1C30283128352882310522803179
:1000680035287E1009008031392882318422803178
:10007800F900AC30840081308500203086000030E3
:1000880087001E3082314C228031F001F101F201EB
:10009800F301F4013E308400003085001B308231CA
:1000A800522280317E1040018131E8294E01991297
:1000B8009E304001E6000030E70082315E22803148
:1000C8004E0119128A304001E6000130E700823102
:1000D80058228031083042019F0090309D00243022
:1000E8009E0008309B009C0185304001E6000230EC
:1000F800E70082316A2280317C304001E60002301C
:10010800E70082316422803180304001E60002300D
:10011800E7008231702280314001D601F401F301F9
:100128001630E8006808E500F101F001D7014E013A
:100138009916080071083E3E860087018101420138
:100148001D1DA728A828B32871083E3E86008701F0
:10015800811440015E088A005D080A00803142016E
:100168009D1CB728B828C32871083E3E8600870121
:10017800011540015C088A005B080A00803171089B
:100188003E3E8600870101080319CB28CC28D328D6
:1001980040015A088A0059080A008031D62881315E
:1001A800102180310800F600400165080319DD2898
:1001B800DE28D8284E01191AE228E328F328760801
:1001C80086008701010842019A000130F500750890
:1001D8004001E5000130F5007508F3070D291912F3
:1001E8007608860087010108F50074084E3E8600EF
:1001F8008701750881000130F5007508F40708309B
:100208007402031C082909290A29F4010130400154
:10021800E5024E011916080042011908F70077088F
:10022800F2006F307206031D1A291B29232910308A
:1002380082313E22813101308231452281316B3059
:100248007206031D282929292D2928308031D72015
:10025800813108307102031C322933293429F10114
:100268000130F70077084001D707080040019801DE
:1002780099019A013F309200F03093006F3094005A
:10028800AF307E01CE007030C3003730B800C401F3
:10029800B901CF01BA01C501D0013730BB00F03038
:1002A800C600FF30D1003F30BC00F030C700FF303F
:1002B800D2000F30A70016307D01CB0008004101A5
:1002C8008C018D018E018F019201930198019A0191
:1002D8009F0142018C018D018E018F0190019201D5
:1002E800930194019501123096009701033098000C
:1002F800C43091004E010D10171400304001E60083
:100308000030E70082317622813108001630400142
:100318006502031890299129A9297308283E8600A7
:100328008701010842019A000130F5007508F307BA
:1003380016307302031CA129A229A329F301013055
:10034800F50075084001E507AB294E0119120800B0
:1003580068346F346C3469347734693473343134C5
:100368006B343034303468346F346C3461346D3409
:1003780075346E3464346B343034303468346F34EC
:100388006C3461346D3475346E346434F800780834
:10039800F7007908283E8600870177088100013038
:1003A800F7007708F90715307906031DDC29DD29E0
:1003B800E7290030823145228131F901F90A2830D4
:1003C8008031D7208131080082311B2281318B177F
:1003D8000B1780315A208131203086000030870089
:1003E800A03084000030850008304001E900160084
:1003F8001A00E90BFB29813163218131022A8031FE
:1004080037284E010D1040015803031D0C2A0D2AF0
:100418001A2A1A1641011E088131CA218231410166
:100428001D088131CA21823140011A120800823127
:100438002B22823181313A21823182313522823137
:1004480081316321823180315A20823108004F0185
:1004580096019701980199019A019B019C019D01C0
:100468000800603051018D008F0191010230930026
:1004780092010800103041019F00420191171114A8
:100488000800F6007608F50075084001D800080055
:10049800FE0012001E00FE0B4D2A0034640080018D
:1004A8000131890B532A003440016708E2006608CD
:1004B800E100080040016708E0006608DF00080066
:1004C80040016708DC006608DB0008004001670897
:1004D800DE006608DD00080040016708DA006608EB
:1004E800D900080040016708E4006608E300080036
:1004F80042011D121D1608008131102182310800A9
:0405080001340800B2
:020000040001F9
:0A000E00EC3FFF3F9F3FFF3FFF3F25
:00000001FF
