:020000040000FA
:1000000080313728080002347E1480310B1F092804
:100010000A2835284E01191E0E280F281A280F1EEF
:10002000122813281A28440168088A0067080A0061
:1000300080313528991E1D281E2829288F1E212829
:1000400022282928440166088A0065080A008031B0
:100050003528171C2C282D2835280D1C3028312830
:100060003528A831F020803135287E1009008031F4
:1000700039284401803103208031EC0003308400B2
:1000800098308500D2308600023087001630A831C3
:10009000B42080314101EF014130840002308500FD
:1000A0002030A831AE208031A0308400023085009D
:1000B0003230A831AE2080317E104001A9310F29A5
:1000C00037084301A700400136084301A60040015C
:1000D00035084301A500400134084301A400270866
:1000E0004001A300430126084001A2004301250866
:1000F0004001A100430124084001A000420167081B
:100100004001A700420166084001A60042016508BF
:100110004001A500420164084001A4009B317C23FA
:100120008031400123084201E700400122084201DA
:10013000E600400121084201E5004001200842019B
:10014000E400430137084001B7004301360840018D
:10015000B600430135084001B500430134084001B1
:10016000B400430137084001BB0043013608400199
:10017000BA00430135084001B90043013408400189
:10018000B80090319D208031400137084301D700ED
:10019000400136084301D600400135084301D5002F
:1001A000400134084301D40040304001A3004030F6
:1001B000A2000030A1000030A00043015708400118
:1001C000A700430156084001A6004301550840011D
:1001D000A500430154084001A4009B317C238031D9
:1001E000400123084301A700400122084301A60063
:1001F000400121084301A500400120084301A4005B
:10020000420167084001A300420166084001A200C4
:10021000420165084001A100420164084001A000BC
:10022000430127084001A700430126084001A6001A
:10023000430125084001A500430124084001A40012
:100240009B317C238031400123084301B3004001EE
:1002500022084301B200400121084301B1004001DE
:1002600020084301B00033084401B30043013208C1
:100270004401B200430131084401B1004301300898
:100280004401B00033084301DF0044013208430158
:10029000DE00440131084301DD0044013008430120
:1002A000DC0000305C054401B000F03043015D0526
:1002B0004401B100FF3043015E054401B200FF304C
:1002C00043015F054401B30033084301B300440117
:1002D00032084301B200440131084301B100440136
:1002E00030084301B000C0304001A3004030A200FC
:1002F0000030A1000030A000430133084001A700F6
:10030000430132084001A600430131084001A50025
:10031000430130084001A4009B317C23803140011F
:1003200023084201D700400122084201D6004001C3
:1003300021084201D500400120084201D4004301B8
:1003400057084001D100430156084001D000430145
:1003500055084001CF00430154084001CE0042013E
:1003600057084001D500420156084001D40042011F
:1003700055084001D300420154084001D200A93180
:100380002E218031400151084201DB00400150081C
:100390004201DA0040014F084201D90040014E08F5
:1003A0004201D8005B084001D10042015A084001D7
:1003B000D000420159084001CF00420158084001D5
:1003C000CE00420167084001D500420166084001A5
:1003D000D400420165084001D30042016408400195
:1003E000D200A9312E218031400151084201CF00B5
:1003F000400150084201CE0040014F084201CD00AB
:1004000040014E084201CC00430133084001B700CF
:10041000430132084001B600430131084001B500F4
:10042000430130084001B400430137084001BB00DC
:10043000430136084001BA00430135084001B900C4
:10044000430134084001B80090319D2080314001C3
:1004500037084301BF00400136084301BE00400198
:1004600035084301BD00400134084301BC002308A6
:100470004001B700430122084001B60043012108B2
:100480004001B500430120084001B40042014F087B
:100490004001BB0042014E084001BA0042014D0834
:1004A0004001B90042014C084001B80090319D2044
:1004B000803140013708A3003608A2003508A100AA
:1004C0003408A000430133084001B700430132085B
:1004D0004001B600430131084001B5004301300836
:1004E0004001B40042014B084001BB0042014A08F0
:1004F0004001BA00420149084001B90042014808E0
:100500004001B80090319D20803140013708A7009C
:100510003608A6003508A5003408A4009B317C23CA
:100520008031400123084301C300400122084301F8
:10053000C200400121084301C100400120084301DD
:10054000C00043084001A300430142084001A2004B
:10055000430141084001A100430140084001A000BF
:1005600043013F084001A70043013E084001A600A7
:1005700043013D084001A50043013C084001A4009F
:100580009B317C238031400123084301E700400177
:1005900022084301E600400121084301E500400133
:1005A00020084301E40067084401B30043016608E2
:1005B0004401B200430165084401B10043016408ED
:1005C0004401B00033084301DF0044013208430115
:1005D000DE00440131084301DD00440130084301DD
:1005E000DC0000305C054401B000F03043015D05E3
:1005F0004401B100FF3043015E054401B200FF3009
:1006000043015F054401B30033084301E70044019F
:1006100032084301E600440131084301E50044018A
:1006200030084301E4003F084001D10043013E0887
:100630004001D00043013D084001CF0043013C0888
:100640004001CE00430167084001D5004301660820
:100650004001D400430165084001D3004301640810
:100660004001D200A9312E218031400151084301BF
:10067000E300400150084301E20040014F084301FC
:10068000E10040014E084301E00063084001D10051
:10069000430162084001D000430161084001CF00DE
:1006A000430160084001CE00430143084001D500EA
:1006B000430142084001D400430141084001D300F6
:1006C000430140084001D200A9312E218031400170
:1006D00051084301AF00400150084301AE00400102
:1006E0004F084301AD0040014E084301AC003F30CC
:1006F0004001B7007630B6004030B5000030B4009D
:10070000430167084001BB00430166084001BA008D
:10071000430165084001B900430164084001B80085
:1007200090319D208031400137084201BB004001DB
:1007300036084201BA00400135084201B9004001C3
:1007400034084201B8003F304001B7007630B600AF
:100750003830B5004F30B40043012F084001BB00D2
:1007600043012E084001BA0043012D084001B900A1
:1007700043012C084001B80090319D208031400198
:100780003708A3003608A2003508A1003408A000ED
:10079000B830B700F630B6002330B500C630B4002C
:1007A000430167084001BB00430166084001BA00ED
:1007B000430165084001B900430164084001B800E5
:1007C00090319D20803140013708A7003608A600EF
:1007D0003508A5003408A4009B317C2380314001FA
:1007E00023084301A700400122084301A60040015D
:1007F00021084301A500400120084301A400690825
:100800008500680884008435850D8435850D0030A9
:100810008407B030853D003F4101DC00013FDD0031
:10082000023FDE00033FDF005F084001A3004101FB
:100830005E084001A20041015D084001A1004101A4
:100840005C084001A000430127084001A7004301C4
:1008500026084001A600430125084001A5004301E8
:1008600024084001A4009B317C23803140012308EF
:100870004201BF00400122084201BE0040012108A0
:100880004201BD00400120084201BC004301530861
:10089000F3005208F2005108F1005008F000013056
:1008A000AD319B25803173084401AB007208AA006A
:1008B0007108A9007008A80042013F084001A30088
:1008C00042013E084001A20042013D084001A10052
:1008D00042013C084001A00042013B084001A70042
:1008E00042013A084001A600420139084001A50032
:1008F000420138084001A4009B317C238031400133
:1009000023084301A700400122084301A60040013B
:1009100021084301A500400120084301A400690803
:100920008500680884008435850D8435850D083080
:100930008407B030853D003F4101DC00013FDD0010
:10094000023FDE00033FDF005F084001A3004101DA
:100950005E084001A20041015D084001A100410183
:100960005C084001A000430127084001A7004301A3
:1009700026084001A600430125084001A5004301C7
:1009800024084001A4009B317C23803140012308CE
:100990004201A300400122084201A20040012108B7
:1009A0004201A100400120084201A00044012B089F
:1009B0004001A30044012A084001A2004401290883
:1009C0004001A100440128084001A0004201230881
:1009D0004001A700420122084001A600420121086F
:1009E0004001A500420120084001A4009B317C2366
:1009F0008031400123084301CB004001220843011C
:100A0000CA00400121084301C900400120084301F8
:100A1000C8004B084401B30043014A084401B20036
:100A2000430149084401B100430148084401B000B2
:100A300033084301DF00440132084301DE00440172
:100A400031084301DD00440130084301DC0000307F
:100A50005C054401B000F03043015D054401B10084
:100A6000FF3043015E054401B200FF3043015F05E2
:100A70004401B30033084301CB0044013208430171
:100A8000CA00440131084301C90044013008430150
:100A9000C80044012B084001D10044012A0840014C
:100AA000D000440129084001CF004401280840013A
:100AB000CE0043014B084001D50043014A084001E4
:100AC000D400430149084001D300430148084001D4
:100AD000D200A9312E218031400151084301E300A9
:100AE000400150084301E20040014F084301E1008A
:100AF00040014E084301E000690885006808840051
:100B00008435850D8435850D08308407B030853DEA
:100B1000003F4101DC00013FDD00023FDE00033FFA
:100B2000DF005F084001D10041015E084001D000B4
:100B300041015D084001CF0041015C084001CE0049
:100B4000430163084001D500430162084001D4001D
:100B5000430161084001D300430160084001D20015
:100B6000A9312E218031400151084201DB004001B2
:100B700050084201DA0040014F084201D90040010B
:100B80004E084201D8003B084001D10042013A081A
:100B90004001D000420139084001CF00420138082D
:100BA0004001CE0042015B084001D50042015A08D5
:100BB0004001D400420159084001D30042015808C5
:100BC0004001D200A9312E2180314001510842015B
:100BD000A700400150084201A60040014F08420111
:100BE000A50040014E084201A40027084001D100A1
:100BF000420126084001D000420125084001CF00F3
:100C0000420124084001CE0042013F084001D500C6
:100C100042013E084001D40042013D084001D3009A
:100C200042013C084001D200A9312E21803140010F
:100C300051084201B700400150084201B60040018E
:100C40004F084201B50040014E084201B400410185
:100C50005B084401B30041015A084401B20041015C
:100C600059084401B100410158084401B00033085B
:100C70004301DF00440132084301DE004401310832
:100C80004301DD00440130084301DC0000305C0515
:100C90004401B000F03043015D054401B100FF3074
:100CA00043015E054401B200FF3043015F0544018A
:100CB000B30033084201C300440132084201C200BC
:100CC000440131084201C100440130084201C00022
:100CD00043014B084001B70043014A084001B600F8
:100CE000430149084001B500430148084001B400F0
:100CF000420143084001D100420142084001D000B6
:100D0000420141084001CF00420140084001CE00AD
:100D100041015B084001D50041015A084001D4005F
:100D2000410159084001D300410158084001D20057
:100D3000A9312E21803140015108BB005008BA0072
:100D40004F08B9004E08B80090319D208031400115
:100D500037084201AB00400136084201AA004001B9
:100D600035084201A900400134084201A8003708B3
:100D70004001B700420136084001B6004201350883
:100D80004001B500420134084001B40041015B0854
:100D90004001BB0041015A084001BA004101590815
:100DA0004001B900410158084001B80090319D2030
:100DB000803140013708A3003608A2003508A100A1
:100DC0003408A00042012B084001A70042012A0874
:100DD0004001A600420129084001A500420128085F
:100DE0004001A4009B317C23803140012308430152
:100DF000AF00400122084301AE0040012108430139
:100E0000AD00400120084301AC004B084001B70091
:100E100043014A084001B600430149084001B500BA
:100E2000430148084001B400420143084001BB00AF
:100E3000420142084001BA00420141084001B900A4
:100E4000420140084001B80090319D2080314001AE
:100E500037084301E700400136084301E60040013E
:100E600035084301E500400134084301E400670808
:100E70004001A300430166084001A2004301650848
:100E80004001A100430164084001A00043012F0874
:100E90004001A70043012E084001A60043012D0890
:100EA0004001A50043012C084001A4009B317C2394
:100EB0008031400123084401AF0040012208440171
:100EC000AE00400121084401AD004001200844016A
:100ED000AC002F08B3002E08B2002D08B1002C087A
:100EE000B0003308A7003208A6003108A50030087A
:100EF000A400A71B862F013024020030253B0030C0
:100F0000263B4330273B031C862F882FA531162D07
:100F100071304001B7004930B600F230B500CA3038
:100F2000B40043014F084001BB0043014E0840019B
:100F3000BA0043014D084001B90043014C0840018B
:100F4000B80090319D208031400137084301EF0007
:100F5000400136084301EE00400135084301ED0031
:100F6000400134084301EC0071304001B7004930C2
:100F7000B600F230B500CA30B40043016F0840013A
:100F8000BB0043016E084001BA0043016D084001F7
:100F9000B90043016C084001B80090319D208031B8
:100FA000400137084101D700400136084101D60011
:100FB000400135084101D500400134084101D40009
:100FC0008F31FF2F42011908F20072084401DD0041
:100FD0005D088731F9278731083044015A02031C24
:100FE000F22FF32FF42FDA010130F2007208D80744
:100FF0000800F1007108F00070084401D6000800F4
:101000007F30F700FF30F600FF30F500FF30F400CE
:101010007708F3007608F2007508F1007408F00014
:101020000800163044016B020318172818283328CB
:1010300041016F08A03E860002308700010842018E
:101040009A000130F00070084101EF0716306F027E
:10105000031C2B282C282D28EF010130F0007008EC
:101060004401EB073C284E0119120130F0007008D2
:101070004401EB004101EF0108001630440126064F
:10108000C3300319270624042504031D48284928D2
:10109000E528430167084001D1004301660840018B
:1010A000D000430165084001CF00430164084001BE
:1010B000CE0044012F084001D50044012E08400114
:1010C000D40044012D084001D30044012C08400104
:1010D000D200A9312E21883140015108D900500891
:1010E000D8004F08D7004E08D60043012F08400112
:1010F000DD0043012E084001DC0043012D084001C2
:10110000DB0043012C084001DA00AD3110258831A5
:10111000031C8B288C28E5280D304001B700A23035
:10112000B6004230B5006030B40043014F084001C2
:10113000BB0043014E084001BA0043014D08400185
:10114000B90043014C084001B80090319D2088311E
:10115000400137084301EF00400136084301EE002B
:10116000400135084301ED00400134084301EC0023
:101170000D304001B700A230B6004230B5006030FB
:10118000B40043016F084001BB0043016E084001F9
:10119000BA0043016D084001B90043016C084001E9
:1011A000B80090319D208831400137084101D700B7
:1011B000400136084101D600400135084101D50003
:1011C000400134084101D400FF2FFF3044012405C1
:1011D0004201C400FF30440125054201C500FF3033
:1011E000440126054201C6007F3044012705420123
:1011F000C70044084101DC00420145084101DD000F
:10120000420146084101DE00420147084101DF007A
:101210001730E000DF37DE0CDD0CDC0CE00B0A29B8
:1012200081305C074301E800FF3041015D3D43012F
:10123000E900FF3041015E3D4301EA00FF3041011A
:101240005F3D4301EB000030D3000030D20000309E
:10125000D1000030D0004201C71B392901304402BF
:101260000030453B0030463B3F30473B031C3929AB
:101270003A296C2A440124084101DC004401250874
:101280004101DD00440126084101DE004401270838
:101290004101DF000030E0000030E1008030E2007A
:1012A0000030E30043016808013E890A41015C29DE
:1012B000E337E20CE10CE00C890B58296008DC07ED
:1012C0006108DD3D6208DE3D6308DF3D5F084301E4
:1012D000D30041015E084301D20041015D08430192
:1012E000D10041015C084301D000FF304101DC0026
:1012F0000030DD000030DE000030DF004301500828
:101300004101E000430151084101E100430152085D
:101310004101E200430153084101E3001730E400BA
:10132000E337E20CE10CE00CE40B90296008DC05EB
:101330006108DD056208DE056308DF0581305C07B2
:101340004301E800FF3041015D3D4301E900FF300A
:1013500041015E3D4301EA00FF3041015F3D430131
:10136000EB00FF304101DC00FF30DD007F30DE00AC
:101370000030DF004301680A4101C229DF37DE0C7B
:10138000DD0CDC0C890BBE29DC09DD09DE09DF0977
:101390004301500841015C054401B000430151087C
:1013A00041015D054401B1004301520841015E0560
:1013B0004401B2004301530841015F054401B300F9
:1013C0003308AB003208AA003108A9003008A80091
:1013D00000304101DC000030DD008030DE000030F4
:1013E000DF00FF30430150054101E000FF304301C1
:1013F00051054101E1007F30430152054101E20006
:101400000030430153054101E3006008DC0461083A
:10141000DD046208DE046308DF0443016808173C4A
:10142000890A4101172ADF37DE0CDD0CDC0C890B41
:10143000132A5F084301D30041015E084301D20033
:1014400041015D084301D10041015C084301D00026
:101450004401A71F2C2A2D2A392A4301D009D1097A
:10146000D209D309D00A0319D10A0319D20A0319E0
:10147000D30A44012B084001D10044012A0840014D
:10148000D000440129084001CF0044012808400150
:10149000CE00430167084001D500430166084001C2
:1014A000D400430165084001D300430164084001B2
:1014B000D200A9312E218831400151084301E700B3
:1014C000400150084301E60040014F084301E50098
:1014D00040014E084301E400430167084001A300B6
:1014E000430166084001A200430165084001A100D4
:1014F000430164084001A00043012F084001A700F8
:1015000043012E084001A60043012D084001A5001B
:1015100043012C084001A4009B317C238831400109
:1015200023084401AB00400122084401AA00400105
:1015300021084401A900400120084401A8002B080B
:10154000B3002A08B2002908B1002808B000330807
:101550004301DF00440132084301DE004401310849
:101560004301DD00440130084301DC0000305C052C
:101570004401B000803043015D054401B100FF30FB
:1015800043015E054401B200FF3043015F054401A1
:10159000B3003308AB003208AA003108A9003008B4
:1015A000A8003F304001B7003130B6007230B500BE
:1015B0000030B40044012B084001BB0044012A085C
:1015C0004001BA00440129084001B900440128083B
:1015D0004001B80090319D20883140013708430117
:1015E000BF00400136084301BE00400135084301F9
:1015F000BD00400134084301BC0067084001D10030
:10160000430166084001D000430165084001CF0056
:10161000430164084001CE0044012B084001D5007D
:1016200044012A084001D400440129084001D300A4
:10163000440128084001D200A9312E2188314001FF
:1016400051084301E300400150084301E20040011A
:101650004F084301E10040014E084301E0003F30E4
:101660004001B7003130B6007230B5001830B40018
:10167000430163084001D100430162084001D000EA
:10168000430161084001CF00430160084001CE00E2
:1016900043012F084001D50043012E084001D4002A
:1016A00043012D084001D30043012C084001D20022
:1016B000A9312E21883140015108BB005008BA00E1
:1016C0004F08B9004E08B80090319D208831400184
:1016D00037084201AF00400136084201AE00400128
:1016E00035084201AD00400134084201AC003530FC
:1016F0004001B700BF30B600BE30B5008C30B4003A
:1017000044012B084001BB0044012A084001BA00F3
:10171000440129084001B900440128084001B800EB
:1017200090319D20883140013708A3003608A2007F
:101730003508A1003408A00042012F084001A7008D
:1017400042012E084001A60042012D084001A500DB
:1017500042012C084001A4009B317C2388314001C8
:1017600023084301C300400122084301C200400195
:1017700021084301C100400120084301C000430883
:101780004001A300430142084001A2004301410877
:101790004001A100430140084001A00043013F086F
:1017A0004001A70043013E084001A60043013D0857
:1017B0004001A50043013C084001A4009B317C236B
:1017C0008831400123084401AF0040012208440150
:1017D000AE00400121084401AD0040012008440151
:1017E000AC0043013F084001D10043013E084001E5
:1017F000D00043013D084001CF0043013C084001B7
:10180000CE0044012F084001D50044012E084001BC
:10181000D40044012D084001D30044012C084001AC
:10182000D200A9312E218831400151084301E30043
:10183000400150084301E20040014F084301E1002C
:1018400040014E084301E00063084001D10043011C
:1018500062084001D000430161084001CF0043010C
:1018600060084001CE00430143084001D500430118
:1018700042084001D400430141084001D300430124
:1018800040084001D200A9312E2188314001510881
:101890004201DF00400150084201DE0040014F08D4
:1018A0004201DD0040014E084201DC0044012F08E6
:1018B0004001B70044012E084001B60044012D0844
:1018C0004001B50044012C084001B40044012F0838
:1018D0004001BB0044012E084001BA0044012D081C
:1018E0004001B90044012C084001B80090319D200E
:1018F0008831400137084401AB00400136084401FB
:10190000AA00400135084401A900400134084401FF
:10191000A800B5304001A300DD30A200EA30A100EC
:101920000E30A0003330B7003130B600BB30B50008
:101930004C30B40044012B084001BB0044012A088C
:101940004001BA00440129084001B90044012808B7
:101950004001B80090319D20883140013708A70030
:101960003608A6003508A5003408A4009B317C2366
:101970008831400123084301EF0040012208430160
:10198000EE00400121084301ED0040012008430121
:10199000EC0038304001A3008A30A200B330A1002F
:1019A0005530A00044012B084001B70044012A082B
:1019B0004001B600440129084001B500440128084F
:1019C0004001B40043016F084001BB0043016E08B1
:1019D0004001BA0043016D084001B90043016C08A1
:1019E0004001B80090319D20883140013708A700A0
:1019F0003608A6003508A5003408A4009B317C23D6
:101A00008831400123084201EF00400122084201D1
:101A1000EE00400121084201ED0040012008420192
:101A2000EC00BB304001A3003630A2000B30A10017
:101A30006130A00044012B084001B70044012A088E
:101A40004001B600440129084001B50044012808BE
:101A50004001B40042016F084001BB0042016E0822
:101A60004001BA0042016D084001B90042016C0812
:101A70004001B80090319D20883140013708A7000F
:101A80003608A6003508A5003408A4009B317C2345
:101A90008831400123084201E3004001220842014D
:101AA000E200400121084201E1004001200842011A
:101AB000E0003E304001A3002A30A200AA30A1007D
:101AC000AB30A00044012B084001B70044012A08B4
:101AD0004001B600440129084001B500440128082E
:101AE0004001B400420163084001BB0042016208AA
:101AF0004001BA00420161084001B900420160089A
:101B00004001B80090319D20883140013708A7007E
:101B10003608A6003508A5003408A4009B317C23B4
:101B20008831400123084201D300400122084201CC
:101B3000D200400121084201D100400120084201A9
:101B4000D00044012B084001B70044012A0840019D
:101B5000B600440129084001B500440128084001AD
:101B6000B400420153084001BB0042015208400149
:101B7000BA00420151084001B90042015008400139
:101B8000B80090319D20883140013708D1003608D7
:101B9000D0003508CF003408CE0044012F084001A2
:101BA000D50044012E084001D40044012D08400115
:101BB000D30044012C084001D200A9312E218831E4
:101BC000400151084301CB00400150084301CA00C5
:101BD00040014F084301C90040014E084301C800BD
:101BE00042015F084001A30042015E084001A200DB
:101BF00042015D084001A10042015C084001A000D3
:101C000042015F084001B70042015E084001B60092
:101C100042015D084001B50042015C084001B4008A
:101C200044012F084001BB0044012E084001BA00C6
:101C300044012D084001B90044012C084001B800BE
:101C400090319D20883140013708A7003608A60052
:101C50003508A5003408A4009B317C23883140015D
:101C600023084201D700400122084201D60040016A
:101C700021084201D500400120084201D400C030B3
:101C80004001A3000030A2000030A1000030A000FD
:101C900043014B084001A70043014A084001A60048
:101CA000430149084001A500430148084001A40040
:101CB0009B317C23883140012308D9002208D800B9
:101CC0002108D7002008D60043014B084001B70087
:101CD00043014A084001B600430149084001B500EC
:101CE000430148084001B40044012F084001BB00F3
:101CF00044012E084001BA0044012D084001B900FA
:101D000044012C084001B80090319D2088314001E9
:101D10003708DD003608DC003508DB003408DA005F
:101D2000A6314C268831400159084201B3004001D8
:101D300058084201B200400157084201B100400179
:101D400056084201B00057084001D1004201560830
:101D50004001D000420155084001CF004201540823
:101D60004001CE00420133084001D5004201320853
:101D70004001D400420131084001D3004201300843
:101D80004001D200A9312E21883140015108420181
:101D9000E700400150084201E60040014F084201BF
:101DA000E50040014E084201E40044012F084001D3
:101DB000D10044012E084001D00044012D0840010B
:101DC000CF0044012C084001CE00420167084001C9
:101DD000D500420166084001D40042016508400177
:101DE000D300420164084001D200A9312E2188317C
:101DF000400151084301E300400150084301E20063
:101E000040014F084301E10040014E084301E0005A
:101E100063084001D100430162084001D000430142
:101E200061084001CF00430160084001CE003F300F
:101E3000D5008030D4000030D3000030D200A9316A
:101E40002E218831400151084401AF004001500863
:101E50004401AE0040014F084401AD0040014E086E
:101E60004401AC002F08B3002E08B2002D08B100C9
:101E70002C08B0003308A7003208A6003108A500DE
:101E80003008A400430150084101DC00430151081F
:101E90004101DD00430152084101DE0043015308C6
:101EA0004101DF001730DC35DD0DDE0DDF0D890B64
:101EB000532F5C084401A40741015D084401A53D7E
:101EC00041015E084401A63D41015F084401A73D70
:101ED00024084101DC00440125084101DD004401E2
:101EE00026084101DE00440127084101DF001730C8
:101EF000E000DF37DE0CDD0CDC0CE00B792FDF1BA4
:101F0000902F5F08031D8F2F5E08031D8F2F5D0824
:101F1000031D8F2F01305C0203188F2F902FBC2FD1
:101F200044012F084001D10044012E084001D00097
:101F300044012D084001CF0044012C084001CE008F
:101F4000430151084001D300430150084001D20031
:101F5000A231C9228831400151084401AF0040013B
:101F600050084401AE0040014F084401AD0040015B
:101F70004E084401AC00CD2F44012708B3002608C9
:101F8000B2002508B1002408B0003308AF003208C1
:101F9000AE003108AD003008AC002F084001B7009A
:101FA00044012E084001B60044012D084001B5004F
:101FB00044012C084001B40043014F084001BB001C
:101FC00043014E084001BA0043014D084001B900E9
:101FD00043014C084001B80090319D2088314001F8
:101FE00037084101D700400136084101D6004001C1
:101FF00035084101D500400134084101D4000800F2
:1020000073087204710470040319072808280A2849
:102010008030F30608003708A7003608A600350808
:10202000A5003408A4009B317C2390314001230893
:102030004201EF00400122084201EE004001210868
:102040004201ED00400120084201EC003E30400119
:10205000A300AA30A200AA30A100AB30A000430127
:1020600057084001B700430156084001B60043013C
:1020700055084001B500430154084001B400420135
:102080006F084001BB0042016E084001BA004201E6
:102090006D084001B90042016C084001B800903160
:1020A0009D20903140013708A7003608A60035086A
:1020B000A5003408A4009B317C2390314001230803
:1020C0004201E300400122084201E20040012108F0
:1020D0004201E100400120084201E0003E304001A1
:1020E000A300DB30A2006D30A100B730A000430197
:1020F00057084001B700430156084001B6004301AC
:1021000055084001B500430154084001B4004201A4
:1021100063084001BB00420162084001BA0042016D
:1021200061084001B900420160084001B8009031E7
:102130009D2090314001AC31872C40013708803917
:10214000BC003C08C1003735BC003C08C300B61FCA
:10215000AA28AB28AC28431443080319B028B12897
:10216000C028430A031DB528B628BE280030B70092
:102170000030B6000030B5000030B400B617C828F3
:102180000030B7000030B6000030B5000030B400B9
:102190003B088039BC003C08C1063B35BC003C080C
:1021A000C200BA1FD428D528D628421442080319E1
:1021B000DA28DB28EA28420A031DDF28E028E8287D
:1021C0000030BB000030BA000030B9000030B80069
:1021D000BA17F2280030BB000030BA000030B90056
:1021E0000030B80042080319F628F728FC284308F5
:1021F000031DFB28FC2805290030B7000030B6007D
:102200000030B5000030B400F32A3408BC003C08AC
:10221000F0003A08A9317021903171084001CD00D9
:102220007008CC004C08BC00BD01BE01BF013F08D6
:10223000C7003E08C6003D08C5003C08C4004D0864
:10224000BC00BD01BE01BF013F08CB003E08CA0073
:102250003D08C9003C08C8003508BC003C08F00037
:102260003908A9317021903171084001CD00700802
:10227000CC004C08BC00BD01BE01BF013C08C40736
:102280003D08C53D3E08C63D3F08C73D4D08BC0062
:10229000BD01BE01BF013C08C8073D08C93D3E085D
:1022A000CA3D3F08CB3D3608BC003C08F00038086A
:1022B000A9317021903171084001CD007008CC0027
:1022C0004C08BC00BD01BE01BF013C08C4073D086D
:1022D000C53D3E08C63D3F08C73D4D08BC00BD0199
:1022E000BE01BF013C08C8073D08C93D3E08CA3DC4
:1022F0003F08CB3D0830C435C50DC60DC70D890B51
:102300007B293508BC003C08F0003808A931702151
:10231000903171084001CD007008CC004C08C40712
:102320004D08C53D0030C63DC73D3408BC003C08E3
:10233000F0003908A9317021903171084001CD00B9
:102340007008CC004C08C4074D08C53D0030C63DA0
:10235000C73D0830C435C50DC60DC70D890BAA2968
:102360003408BC003C08F0003808A93170219031D5
:1023700071084001CD007008CC004C08C4074D081E
:10238000C53D0030C63DC73D3508BC003C08F000E7
:102390003A08A9317021903171084001CD007008D0
:1023A000CC004C08C8074D08C93D0030CA3DCB3DA4
:1023B0003608BC003C08F0003908A9317021903182
:1023C00071084001CD007008CC004C08C8074D08CA
:1023D000C93D0030CA3DCB3D3608BC003C08F0008A
:1023E0003A08A9317021903171084001CD00700880
:1023F000CC004C08BC004D08BD00BE01BF01083038
:10240000BC35BD0DBE0DBF0D890B002A3C08C807A9
:102410003D08C93D3E08CA3D3F08CB3D4408BC00CD
:102420004508BD004608BE004708BF001830BF364B
:10243000BE0CBD0CBC0C890B172A3C08C8073D0814
:10244000C93D3E08CA3D3F08CB3D0830C435C50DE7
:10245000C60DC70D890B262A43084207BC00BD01E3
:10246000BD0D3C08823ECC00FF303D3DCD004F2AE3
:102470000130C835C90DCA0DCB0D890B392AC71FCC
:10248000422A432A442A48140130C435C50DC60DDA
:10249000C70D890B452AFF30CC07FF30CD3DCA1F41
:1024A000522A532A382AC201C71F572A582A742A87
:1024B000FF304405BC00FF304505BD00FF30460538
:1024C000BE007F304705BF003F083E043D043C048A
:1024D00003196B2A6C2A6F2AC201C20A742A481C8B
:1024E000722A732A742A6C2A42080319782A792AD4
:1024F000A12A0130C8070030C93D0030CA3D003074
:10250000CB3D4B1C842A852AA12A4808BC004908D7
:10251000BD004A08BE004B08BF000130C000BF37F5
:10252000BE0CBD0CBC0CC00B8F2A3F08CB003E0874
:10253000CA003D08C9003C08C8000130CC07003083
:10254000CD3D4D08803ABC0080303C02031DAA2AD4
:10255000FF304C02031CAD2AAE2AB82A7F3040015E
:10256000CB008030CA000030C9000030C800E72A24
:1025700040014D08803ABC0080303C02031DC22A55
:1025800001304C020318C52AC62AD12A0030400166
:10259000CB000030CA000030C9000030C800C101C3
:1025A000E72A40014C08BC003C08C300FF30C805C6
:1025B000FF30C9057F30CA050030CB05431CE12A36
:1025C000E22AE32ACA174336BC003C08CB00410884
:1025D000BC003C08CB044B08B7004A08B6004908C9
:1025E000B5004808B4000800BF304001A3008030A7
:1025F000A2000030A1000030A00043013B084001D0
:10260000A70043013A084001A600430139084001F0
:10261000A500430138084001A4009B317C2392317E
:10262000400123084401AB00400122084401AA00F4
:10263000400121084401A900400120084401A800EC
:102640003E304001B7008030B6000030B5000030A9
:10265000B40044012B084001BB0044012A0840019A
:10266000BA00440129084001B9004401280840018A
:10267000B80090319D20923140013708D1003608D2
:10268000D0003508CF003408CE003E30D500AA3047
:10269000D400AA30D300AB30D200A9312E21923120
:1026A000400151084301EF00400150084301EE0092
:1026B00040014F084301ED0040014E084301EC008A
:1026C00044012B084001B70044012A084001B6002C
:1026D000440129084001B500440128084001B40024
:1026E00043016F084001BB0043016E084001BA007E
:1026F00043016D084001B90043016C084001B80076
:1027000090319D20923140013708D1003608D00029
:102710003508CF003408CE003F30D5000030D4005B
:102720000030D3000030D200A9312E219231400177
:1027300051084201EF00400150084201EE00400103
:102740004F084201ED0040014E084201EC004401F7
:102750002B084001B70044012A084001B60044019B
:1027600029084001B500440128084001B400440193
:102770002B084001BB0044012A084001BA00440173
:1027800029084001B900440128084001B8009031EF
:102790009D209231400137084201E3004001360894
:1027A0004201E200400135084201E10040013408E5
:1027B0004201E0006F084001B70042016E0840018D
:1027C000B60042016D084001B50042016C084001AD
:1027D000B400420163084001BB00420162084001AD
:1027E000BA00420161084001B9004201600840019D
:1027F000B80090319D209231400137084201DF003E
:10280000400136084201DE00400135084201DD008A
:10281000400134084201DC003F304001B700B830CD
:10282000B600AA30B5000030B40044012B084001C6
:10283000BB0044012A084001BA00440129084001B4
:10284000B900440128084001B80090319D20923120
:10285000400137084301BF00400136084301BE0074
:10286000400135084301BD00400134084301BC006C
:102870003F304001B700B830B600AA30B5003B3059
:10288000B40042015F084001BB0042015E08400104
:10289000BA0042015D084001B90042015C084001F4
:1028A000B80090319D20923140013708D1003608A0
:1028B000D0003508CF003408CE003630B700EC30F9
:1028C000B600A530B5007030B40044012B084001BB
:1028D000BB0044012A084001BA0044012908400114
:1028E000B900440128084001B80090319D20923180
:1028F00040013708D5003608D4003508D300340825
:10290000D200A9312E219231400151084301C30068
:10291000400150084301C20040014F084301C1007B
:1029200040014E084301C00043084001A300430199
:1029300042084001A200430141084001A1004301B7
:1029400040084001A00043013F084001A7004301A7
:102950003E084001A60043013D084001A500430197
:102960003C084001A4009B317C23923140012308A4
:102970004301CB00400122084301CA004001210865
:102980004301C900400120084301C8004B0844012D
:10299000B30043014A084401B2004301490844011D
:1029A000B100430148084401B00033084301DF008F
:1029B000440132084301DE00440131084301DD00D7
:1029C000440130084301DC0000305C054401B000E4
:1029D000F03043015D054401B100FF3043015E0565
:1029E0004401B200FF3043015F054401B3003308E6
:1029F0004301CB00440132084301CA0044013108BD
:102A00004301C900440130084301C8003F084001A8
:102A1000D10043013E084001D00043013D08400180
:102A2000CF0043013C084001CE0043014B08400168
:102A3000D50043014A084001D40043014908400140
:102A4000D300430148084001D200A9312E21923120
:102A5000400151084301E300400150084301E200F6
:102A600040014F084301E10040014E084301E000EE
:102A700063084001D100430162084001D0004301D6
:102A800061084001CF00430160084001CE004301CE
:102A900043084001D500430142084001D4004301EE
:102AA00041084001D300430140084001D200A93150
:102AB0002E219231400151084201B70040015008D7
:102AC0004201B60040014F084201B50040014E08E6
:102AD0004201B4008631272E41012308BB002208A1
:102AE000BA002108B9002008B8003B08D3003A0812
:102AF000D2003908D1003808D00000305005A400B9
:102B000000305105A50080305205A6007F305305E6
:102B1000A700803026067F300319270624042504E9
:102B2000031D932D942DE32D23084001A3004101A3
:102B300022084001A200410121084001A1004101F9
:102B400020084001A000410123084001B7004101D5
:102B500022084001B600410121084001B5004101B1
:102B600020084001B400410123084001BB0041019D
:102B700022084001BA00410121084001B900410189
:102B800020084001B80090319D2095314001370860
:102B9000A7003608A6003508A5003408A4009B311C
:102BA0007C239531400123084101A3004001220804
:102BB0004101A200400121084101A100400120087B
:102BC0004101A000FF2FD31BF42D5308031DF32D4B
:102BD0005208031DF32D5108031DF32D013050023F
:102BE0000318F32DF42D232EFF305005A400FF30E1
:102BF0005105A500FF305205A6007F305305A70000
:102C00002708260425042404031D072E082E092E58
:102C1000FF2FD31F0C2E0D2E232E21304401D10067
:102C20000030D2007C30F000B030F100883100205C
:102C3000953173084101A3007208A2007108A10038
:102C40007008A000FF2F5008A4005108A5005208EA
:102C5000A6005308A7001730A800A737A60CA50C9C
:102C6000A40CA80B2D2E2708CB002608CA00250887
:102C7000C9002408C8004B084A0449044804031D3D
:102C8000422E432E772E0030B7000030B6000030C1
:102C9000B5000030B4005B2E0130D035D10DD20D1F
:102CA000D30D890B4D2E0130B4070030B53D0030F7
:102CB000B63D0030B73DD21F5E2E5F2E4C2EFF304A
:102CC000A400FF30A500FF30A600FF30A7003408A5
:102CD000A4073508A53D3608A63D3708A73D2408BA
:102CE000C8022508C93B2608CA3B2708CB3B8130D0
:102CF000C807FF30C93DFF30CA3DFF30CB3D003033
:102D0000A4000030A5008030A6000030A700FF30EE
:102D10005005A800FF305105A9007F305205AA00D8
:102D200000305305AB002808A4042908A5042A088C
:102D3000A6042B08A7042708D3002608D2002508DC
:102D4000D1002408D000481CA62EA72EAF2E500874
:102D5000D0075108D13D5208D23D5308D33D013030
:102D6000A400CB37CA0CC90CC80CA40BB12E500858
:102D7000D0075108D13D5208D23D5308D33D003011
:102D8000B3000030B2000030B1000030B0003308B2
:102D9000BF003208BE003108BD003008BC00013061
:102DA000CF000030CE000030CD000030CC00352FF9
:102DB00030084C07A40031084D3DA50032084E3DB7
:102DC000A60033084F3DA7002708C3002608C2000D
:102DD0002508C1002408C0005308803AA400430815
:102DE000803A2402031DFE2E42085202031DFE2ECD
:102DF00041085102031DFE2E40085002031C012F02
:102E0000022F262F40084C07A40041084D3DA50085
:102E100042084E3DA60043084F3DA7002708B300D7
:102E20002608B2002508B1002408B0004008D002EE
:102E30004108D13B4208D23B4308D33B4C08BC0776
:102E40004D08BD3D4E08BE3D4F08BF3D5008D00760
:102E50005108D13D5208D23D5308D33D0130CF3601
:102E6000CE0CCD0CCC0C890B2F2F4F084E044D04EB
:102E70004C04031D3C2F3D2FD82E530852045104FF
:102E800050040319442F452FB32F3F30C700803023
:102E9000C6000030C5000030C40047084001D9001A
:102EA000410146084001D800410145084001D700D2
:102EB000410144084001D6003F30DD008030DC0095
:102EC0000030DB000030DA00AD3110259531031CF5
:102ED0006A2F6B2FB32F3F304101C7008030C600EF
:102EE0000030C5000030C4003F304001D9008030C0
:102EF000D8000030D7000030D6004101470840011B
:102F0000DD00410146084001DC0041014508400167
:102F1000DB00410144084001DA00AD311025953154
:102F20000318932F942F9E2F02304101BC070030CD
:102F3000BD3D0030BE3D0030BF3DB32F01304101EB
:102F40003C05A40000303D05A50000303E05A6006C
:102F500000303F05A7002408BC072508BD3D260812
:102F6000BE3D2708BF3D41013C08A4003D08A50027
:102F70003E08A6003F08A7000130A800A737A60C0E
:102F8000A50CA40CA80BBE2F00302407D0000030E5
:102F9000253DD1000030263DD2003F30273DD300F3
:102FA0004808A4004908A5004A08A6004B08A70045
:102FB0001730A435A50DA60DA70D890BD92F240810
:102FC000D0072508D13D2608D23D2708D33D530818
:102FD000BB005208BA005108B9005008B8003B08BD
:102FE000C7003A08C6003908C5003808C4004708B9
:102FF000A3004608A2004508A1004408A00008005C
:1030060068343134303468346F346C3461346D3440
:1030160075346E3464346F343034303468346F341D
:103026006C3461346D3475346E3474344E019912D7
:1030360006304501E8002A30E900A831D52098314C
:103046004E01191211304501E8000830E900A83197
:10305600DE209831083042019F0090309D002430D8
:103066009E0008309B009C0102304501E8000030BC
:10307600E900A831C32098319E304501E800283088
:10308600E900A831CC2098319A304501E800283073
:10309600E900A831A82098314401D701DF01DE01FB
:1030A60016304501EA006A084401EB00DA01D9014D
:1030B600D8014E01991608000030D3000030D20026
:1030C6000030D1000030D0004401A31B7328230830
:1030D600031D722880302202031872287328BE2826
:1030E6004B304001B7008030B6000030B5000030EC
:1030F600B40043013B084001BB0043013A084001CC
:10310600BA00430139084001B900430138084001BB
:10311600B80090319D209831400137084301BB002B
:10312600400136084301BA00400135084301B900A1
:10313600400134084301B800E830D007FF30D13DE4
:10314600FF30D23DFF30D33D3B084401B30043017D
:103156003A084401B200430139084401B100430171
:1031660038084401B0003308A3003208A200310831
:10317600A1003008A00081304101DC00FF30DD00F5
:10318600FF30DE00FF30DF00440120084101E0008F
:10319600440121084101E100440122084101E20005
:1031A600440123084101E3001730E400E337E20C51
:1031B600E10CE00CE40BD9286008DC076108DD3D72
:1031C6006208DE3D6308DF3D5C084301D00741012C
:1031D6005D084301D13D41015E084301D23D4101F5
:1031E6005F084301D33DFF3044012005A400FF30B2
:1031F6002105A5007F302205A60000302305A70083
:1032060000302404A00000302504A10080302604EC
:10321600A2003F302704A300A71B1E292708031D71
:103226001D2972302402C430253B1C30263B03186E
:103236001D291E29282900304301EB000030EA0031
:103246000030E9000030E8005B29A71B3729270872
:10325600031D3629D7302402B330253B5D30263B8B
:10326600031836293729412900304301EB00003085
:10327600EA000030E9000130E8005B290030430134
:10328600EB000030EA000030E9000030E8000130D1
:10329600D0070030D13D0030D23D0030D33D003064
:1032A6004401A0070030A13D8030A23DFF30A33D80
:1032B60044012308B3002208B2002108B100200807
:1032C600B00033084301BB00440132084301BA0091
:1032D600440131084301B900440130084301B800F4
:1032E60069088500680884008435850D8435850D58
:1032F60010308407B030853D003F4101DC00013FBE
:10330600DD00023FDE00033FDF005F084001D10021
:1033160041015E084001D00041015D084001CF0037
:1033260041015C084001CE0043013B084001D50045
:1033360043013A084001D400430139084001D30053
:10334600430138084001D200A9312E2198314001AD
:10335600A0310A28410157084401B300410156082B
:103366004401B200410155084401B100410154082D
:103376004401B00033084301AB0044013208430165
:10338600AA00440131084301A90044013008430161
:10339600A80041015B084401B30041015A084401F9
:1033A600B200410159084401B100410158084401E5
:1033B600B00033084301C700440132084301C60088
:1033C600440131084301C500440130084301C400EB
:1033D600FF3028054401A000FF30430129054401C0
:1033E600A100FF3043012A054401A2007F304301BA
:1033F6002B054401A300FF3043014405D800FF30EC
:103406004505D900FF304605DA007F304705DB0069
:103416005B085A0459045804031D122A132A1E2A4B
:103426003F304101D7008030D6000030D500003053
:10343600D4008F31FF2F80302A063F3003192B0628
:1034460028042904031D282A292A332A3F3041014A
:10345600D7008030D6000030D5000030D4001C2ABA
:103466004401A31B422A013020020030213B803058
:10347600223B7F30233B0318412A422A512A43012B
:10348600DB1B502A013058020030593B80305A3B32
:103496007F305B3B031C502A512A852A41015B0879
:1034A6004001A30041015A084001A2004101590808
:1034B6004001A100410158084001A0004101570800
:1034C6004001A700410156084001A60041015508E8
:1034D6004001A500410154084001A4009B317C2312
:1034E6009931400123084101D700400122084101DA
:1034F600D600400121084101D500400120084101C4
:10350600D4001C2A00304201EB000030EA000030F3
:10351600E9000030E8004301AB1F922A932A6E2B84
:10352600DB1B9C2A80305A024B305B3B031C9C2AD7
:103536009D2AA72A00304201EB000030EA00003045
:10354600E9000230E8006E2BDB1BB02A80305A02FD
:103556003F305B3B031CB02AB12A6E2B5808410151
:10356600DC00430159084101DD0043015A084101CD
:10357600DE0043015B084101DF001730E000DF3762
:10358600DE0CDD0CDC0CE00BC22A81305C0743014B
:10359600E800FF3041015D3D4301E900FF30410194
:1035A6005E3D4301EA00FF3041015F3D4301EB0010
:1035B60058084101DC00430159084101DD0043017F
:1035C6005A084101DE0043015B084101DF00430167
:1035D6006808173C890A4101F42ADF37DE0CDD0C46
:1035E600DC0C890BF02A5F084401A70041015E0844
:1035F6004401A60041015D084401A50041015C08A3
:103606004401A40024084101DC00440125084101CD
:10361600DD00440126084101DE004401270841017E
:10362600DF0043016808173C890A41011E2BDC357F
:10363600DD0DDE0DDF0D890B1A2B43015B08410101
:103646005F06031D362B43015A0841015E06031D22
:10365600362B4301590841015D06031D362B4301F4
:10366600580841015C06031D392B3A2B6E2B01309D
:10367600440124054101DC000030440125054101D7
:10368600DD000030440126054101DE000030440122
:1036960027054101DF000230E0000030E100003084
:1036A600E2000030E3005C08E0025D08E13B5E08F2
:1036B600E23B5F08E33B63084201EB00410162081D
:1036C6004201EA00410161084201E9004101600846
:1036D6004201E8006E2B803043015A067F30031901
:1036E6005B0658045904031D7A2B9D31B42D9E3177
:1036F600162E400123088039A8002808B00023357B
:10370600A8002808B200A21F892B8A2B8B2B321403
:10371600320803198F2B902BA02B320A031D942BF2
:10372600952B9D2B0030A3000030A2000030A10095
:103736000030A000A217A301A82B0030A300003080
:10374600A2000030A1000030A00027088039A800A0
:103756002808B100310830060319B22BB32BB42B5D
:1037660030172735A8002808B100A61FBB2BBC2B95
:10377600BD2B311431080319C12BC22BD22B310AB0
:10378600031DC62BC72BCF2B0030A7000030A60089
:103796000030A5000030A400A617A701DA2B0030E0
:1037A600A7000030A6000030A5000030A4003208B3
:1037B60031020318DF2BE02B242C301FE32BE42BE4
:1037C600E82B8030A8002808B0063208A800280890
:1037D600B3003108A8002808B2003308A80028085A
:1037E600B1002008A8002808B3002408A80028086B
:1037F600A0003308A8002808A4002108A80028086B
:10380600B3002508A8002808A1003308A800280846
:10381600A5002208A8002808B3002608A800280842
:10382600A2003308A8002808A6002308A800280834
:10383600B3002708A8002808A3003308A800280812
:10384600A700B3013108A800A9012908AB00320876
:103856002802AA00031CAB032B08803AAC00803078
:103866002C02031D382C1A302A02031C3B2C3C2C3C
:10387600742C40012308220421042004031D442C37
:10388600462C0130472C0030A8002808B300003031
:10389600A3000030A2000030A1000030A0003108D3
:1038A600A8002808B2007B2C331C5A2C5B2C612CF8
:1038B60033360138A8002808B300632C0310B30C74
:1038C600201C662C672C682CB3170130A800A33780
:1038D600A20CA10CA00CA80B6A2C0130A800280889
:1038E600B207400131083202031C7A2C7B2C572C7C
:1038F600301B7E2C7F2CB72C3208031D832C842C86
:103906008D2C0030A3000030A2000030A100003052
:10391600A000B32D2408A0072508A13D2608A23D36
:103926002708A33D231C982C992C432D331C9C2C33
:103936009D2CA32C33360138A8002808B300A52CEB
:103946000310B30C201CA82CA92CAA2CB3170130E9
:10395600A800A337A20CA10CA00CA80BAC2C01301C
:10396600A8002808B207432D2308803AA800270894
:10397600803A2802031DC92C26082202031DC92CE1
:1039860025082102031DC92C240820020318CC2C6B
:10399600CD2C052DFF30A800FF30A900FF30AA006E
:1039A600FF30AB0020082402AC002108253BAD0007
:1039B6002208263BAE002308273BAF002C08A807A9
:1039C6002D08A93D2E08AA3D2F08AB3D2B08A300C4
:1039D6002A08A2002908A1002808A0008030A80013
:1039E6002808B006B309B30A3308031DFB2CFC2CC8
:1039F6000D2D0130A0070030A13D0030A23D003062
:103A0600A33D0D2D2408A0022508A13B2608A23BB4
:103A16002708A33B2308220421042004031D142D98
:103A2600152D3F2D3308031D192D1A2D3F2D00305E
:103A3600A3000030A2000030A1000030A000B32D8A
:103A46000130A035A10DA20DA30D890B242DB31FA6
:103A56002D2D2E2D2F2D2014331C322D332D362DAA
:103A66000314B30D382D0310B30D320803193C2D82
:103A76003D2D3F2D0130B202A21F422D432D232D95
:103A8600B101B31F472D482D562D33087F39031931
:103A96004D2D4E2D512DB101B10A562D201C542D00
:103AA600552D562D4E2D310803195A2D5B2D882D77
:103AB6000130A0070030A13D0030A23D0030A33DFB
:103AC600231C662D672D882D2008A8002108A90033
:103AD6002208AA002308AB000130AC00AB37AA0CC1
:103AE600A90CA80CAC0B712D2B08A3002A08A20068
:103AF6002908A1002808A000320A0319832D842D65
:103B0600882D0130A8002808B207320A03198C2D27
:103B16008D2D922D3208031D912D922DA02D003052
:103B2600A3000030A2000030A1000030A00032083F
:103B3600031D9E2D9F2DA02DB001321CA32DA42D5B
:103B4600A62DA217AA2D7F30A8002808A205323676
:103B5600A8002808A300B01FB12DB22DB32DA317BE
:103B660008008030440122063F3003192306200452
:103B76002104031DBF2DC02DCA2D3F304101D700A2
:103B86008030D6000030D5000030D400512EA31B63
:103B9600D72D013020020030213B8030223B3F30C0
:103BA600233B031CD72DD82DF12D4301C71FDC2D38
:103BB600DD2DE72D00304101D7000030D600003062
:103BC600D5000030D400512E41015B08D7005A08B9
:103BD600D6005908D5005808D400512E4301C71FF6
:103BE600F52DF62D0C2E41015B08F3005A08F20064
:103BF6005908F1005808F000903100209D317308F3
:103C06004101D7007208D6007108D5007008D400AB
:103C1600512E00304101D7000030D6000030D500CB
:103C26000030D400512E80305A063F3003195B060F
:103C360058045904031D202E212E532EC71F242E4F
:103C4600252E512E410157084001D9004101560841
:103C56004001D800410155084001D70041015408F0
:103C66004001D6003F30DD008030DC000030DB0054
:103C76000030DA00A6314C269D3140015908410139
:103C8600D700400158084101D600400157084101BC
:103C9600D500400156084101D400512E8F31FF2F27
:103CA60040304706440445044604031D5B2E5C2E43
:103CB600902E410157084001B700410156084001C6
:103CC600B600410155084001B500410154084001C4
:103CD600B400410157084001BB00410156084001AC
:103CE600BA00410155084001B9004101540840019C
:103CF600B80090319D209D31400137084101D70021
:103D0600400136084101D600400135084101D50081
:103D1600400134084101D400512E3F304706440487
:103D260045044604031D982E992EB32EAB1B9C2EDC
:103D36009D2EB32E41015708A3005608A200550830
:103D4600A1005408A00095316C259D31410123083E
:103D5600D7002208D6002108D5002008D400512E0D
:103D660041015708F3005608F2005508F1005408BF
:103D7600F000A9314E219D3173084301BB00720842
:103D8600BA007108B9007008B800803044012206F4
:103D96007F3003192306200421040319D32ED42EC1
:103DA600E82E23082204210420040319DB2EDC2E2E
:103DB600E82E803022063F30031923062004210412
:103DC600031DE62EE82EA031992843013B08440145
:103DD600AF0043013A084401AE00430139084401EB
:103DE600AD00430138084401AC004301C71FFC2E57
:103DF600FD2E282F44012F084001D90044012E082A
:103E06004001D80044012D084001D70044012C0888
:103E16004001D6003F30DD008030DC000030DB00A2
:103E26000030DA00A6314C269D3140015908440184
:103E3600AF00400158084401AE0040015708440154
:103E4600AD00400156084401AC004301AB1F2C2FC6
:103E56002D2FEF2F420168084101DC00420169085D
:103E66004101DD0042016A084101DE0042016B08A2
:103E76004101DF000030E0000030E1008030E20068
:103E8600C030E300440120084101E0074401210855
:103E96004101E13D440122084101E23D440123087C
:103EA6004101E33D6008DC046108DD046208DE04CC
:103EB6006308DF045F085E045D045C04031D642F71
:103EC600652FD12F44012F084001D10044012E084F
:103ED6004001D00044012D084001CF0044012C08C8
:103EE6004001CE0044012F084001D50044012E08B0
:103EF6004001D40044012D084001D30044012C08A0
:103F06004001D200A9312E219D3140015108D9002E
:103F16005008D8004F08D7004E08D60044012F0895
:103F26004001D10044012E084001D00044012D0873
:103F36004001CF0044012C084001CE0044012F0867
:103F46004001D50044012E084001D40044012D084B
:103F56004001D30044012C084001D200A9312E2192
:103F66009D3140015108DD005008DC004F08DB00A0
:103F76004E08DA00A6314C269D314001590844010D
:103F8600AF00400158084401AE0040015708440103
:103F9600AD00400156084401AC00EF2F4201680312
:103FA60069046A046B04031DD92FDA2FEF2F44012D
:103FB6002F08F3002E08F2002D08F1002C08F0005F
:103FC600903100209D3173084401AF007208AE00A5
:103FD6007108AD007008AC0044012F084101D700FC
:103FE60044012E084101D60044012D084101D500A7
:103FF60044012C084101D400512E4F01960197012E
:10400600980199019A019B019C019D0108005108A4
:104016004301BF00400150084301BE0040014F0864
:104026004301BD0040014E084301BC003B0840016E
:10403600A30043013A084001A200430139084001A8
:10404600A100430138084001A0004301690885002A
:10405600680884008435850D8435850D1030840705
:10406600B030853D003F4101DC00013FDD00023FED
:10407600DE00033FDF005F084001A70041015E0844
:104086004001A60041015D084001A50041015C0810
:104096004001A4009B317C23A03140012308D900B4
:1040A6002208D8002108D7002008D6003F30DD00BE
:1040B6008030DC000030DB000030DA00A6314C2610
:1040C600A031400159084301C3004001580843018B
:1040D600C200400157084301C10040015608430190
:1040E600C00043084001B700430142084001B60042
:1040F600430141084001B500430140084001B400B6
:1041060043013F084001BB0043013E084001BA009D
:1041160043013D084001B90043013C084001B80095
:1041260090319D20A0314001A131AC293F3043019F
:10413600CF008030CE000030CD000030CC00AB1F69
:10414600A528A6282D2942016B086A04690468047B
:10415600031DAE28AF281C29410157084001D10094
:10416600410156084001D000410155084001CF00E9
:10417600410154084001CE00410157084001D500D5
:10418600410156084001D400410155084001D300C1
:10419600410154084001D200A9312E21A03140012D
:1041A6005108D9005008D8004F08D7004E08D6004D
:1041B600410157084001D100410156084001D00095
:1041C600410155084001CF00410154084001CE008D
:1041D600410157084001D500410156084001D4006D
:1041E600410155084001D300410154084001D20065
:1041F600A9312E21A03140015108DD005008DC0014
:104206004F08DB004E08DA00A6314C26A0314001EB
:1042160059084101D700400158084101D600400124
:1042260057084101D500400156084101D4008F319D
:10423600FF2F680369046A046B04031D23292429DC
:104246002D29BF304301CF008030CE000030CD0095
:104256000030CC004301DB1B3B2901305802003003
:10426600593B00305A3B4D305B3B031C3B293D29F3
:1042760098315F284401A31B4D29F8302002FF30F6
:10428600213B7F30223B3F30233B03184B294D29EE
:10429600A431432C4301C71B51295329A331E92BD0
:1042A6000D304001B700A230B6004230B500603094
:1042B600B40043014F084001BB0043014E084001D2
:1042C600BA0043014D084001B90043014C084001C2
:1042D600B80090319D20A031400137084301EF001E
:1042E600400136084301EE00400135084301ED0068
:1042F600400134084301EC000D304001B700A23004
:10430600B6004230B5006030B40043016F0840018A
:10431600BB0043016E084001BA0043016D0840012D
:10432600B90043016C084001B80090319D20A031CE
:10433600400137084101D700400136084101D60047
:10434600400135084101D500400134084101D4003F
:104356001A2937084301A300400136084301A20089
:10436600400135084301A100400134084301A00083
:104376002308B7002208B6002108B5002008B400BB
:1043860037084401B300430136084401B200430133
:1043960035084401B100430134084401B000330834
:1043A6004301DF00440132084301DE0044013108C5
:1043B6004301DD00440130084301DC0000305C05A8
:1043C6004401B000F03043015D054401B100FF3007
:1043D60043015E054401B200FF3043015F0544011D
:1043E600B30033084301B700440132084301B60065
:1043F600440131084301B500440130084301B400CB
:1044060000304101DC00F030DD00FF30DE00FF301F
:10441600DF00440120084101E00044012108410178
:10442600E100440122084101E20044012308410160
:10443600E3000130E400E337E20CE10CE00CE40BAE
:104446001E2A6008DC056108DD056208DE056308D2
:10445600DF0500305C044301DC00003041015D04EF
:104466004301DD00003041015E044301DE002030DF
:1044760041015F044301DF005C084101DC004301A8
:104486005D084101DD0043015E084101DE00430194
:104496005F084101DF00430168084101E000430174
:1044A60069084101E10043016A084101E200430154
:1044B6006B084101E3001530E035E10DE20DE30D37
:1044C600890B5F2A6008DC076108DD3D6208DE3D76
:1044D6006308DF3D00305C074401B0000030410155
:1044E6005D3D4401B100403041015E3D4401B200F2
:1044F600003041015F3D4401B30033084301B3007E
:10450600440132084301B200440131084301B100BD
:10451600440130084301B00069088500680884003A
:104526008435850D8435850D10308407B030853D82
:10453600003F4101DC00013FDD00023FDE00033F9A
:10454600DF005F084001D10041015E084001D00054
:1045560041015D084001CF0041015C084001CE00E9
:10456600430133084001D500430132084001D4001D
:10457600430131084001D300430130084001D20015
:10458600A9312E21A1314001AB31802B40015108C8
:10459600E1005008E0004F08DF004E08DE00530837
:1045A600803AD40080305402031DDB2A8030520248
:1045B600031CDE2ADF2A412B7F304001B700003082
:1045C600B6000030B5000030B4006108BB006008DA
:1045D600BA005F08B9005E08B80090319D20A2318C
:1045E60040013708E1003608E0003508DF003408EE
:1045F600DE008130D207FF30D33D5308803AD40025
:1046060080305402031D092B80305202031C0C2BF0
:104616000D2BB02B7F304001B7000030B6000030C4
:10462600B5000030B4006108BB006008BA005F083E
:10463600B9005E08B80090319D20A23140013708CC
:10464600E1003608E0003508DF003408DE0081307E
:10465600D207FF30D33D5308803AD400803054024D
:10466600031D372B80305202031C3A2B3B2BB02BF9
:104676007F304001D2000030D300B02B40015308F8
:10468600803AD4007F305402031D4B2B82305202F5
:1046960003184E2B4F2BB02B0C304001B700803047
:1046A600B6000030B5000030B4006108BB006008F9
:1046B600BA005F08B9005E08B80090319D20A231AB
:1046C60040013708E1003608E0003508DF0034080D
:1046D600DE006630D2070030D33D5308803AD4005E
:1046E6007F305402031D792B8230520203187C2B33
:1046F6007D2BB02B0C304001B7008030B600003067
:10470600B5000030B4006108BB006008BA005F085D
:10471600B9005E08B80090319D20A23140013708EB
:10472600E1003608E0003508DF003408DE006630B8
:10473600D2070030D33D5308803AD4007F3054026C
:10474600031DA72B823052020318AA2BAB2BB02BCA
:1047560082304001D200FF30D300400152087F3E34
:10476600D4000030533DD5005408D6005508D70074
:10477600D801D9011730D635D70DD80DD90D890BEB
:10478600BE2B5908DD005808DC005708DB00560828
:10479600DA006108B7006008B6005F08B5005E0879
:1047A600B4005D08BB005C08BA005B08B9005A0893
:1047B600B80090319D20A23140013708D10036085B
:1047C600D0003508CF003408CE0008007130400113
:1047D600B7004930B600F230B500CA30B400430124
:1047E6004F084001BB0043014E084001BA00430197
:1047F6004D084001B90043014C084001B800903112
:104806009D20A331400137084301EF0040013608DF
:104816004301EE00400135084301ED004001340834
:104826004301EC0071304001B7004930B600F23068
:10483600B500CA30B40043016F084001BB00430114
:104846006E084001BA0043016D084001B9004301FA
:104856006C084001B80090319D20A3314001370813
:104866004101D700400136084101D6004001350814
:104876004101D500400134084101D4008F31FF2F9A
:10488600A31B502C083020020030213B8030223BF5
:104896003F30233B031C502C522C9231F42A430107
:1048A600C71B642C4708031D632C4608031D632C95
:1048B6004508031D632C013044020318632C642C45
:1048C600BD2C0D304001B700A230B6004230B50015
:1048D6006030B40043014F084001BB0043014E085D
:1048E6004001BA0043014D084001B90043014C089C
:1048F6004001B80090319D20A331400137084301A3
:10490600EF00400136084301EE004001350843013F
:10491600ED00400134084301EC000D304001B700C2
:10492600A230B6004230B5006030B40043016F08D3
:104936004001BB0043016E084001BA0043016D0807
:104946004001B90043016C084001B80090319D2038
:10495600A331400137084101D70040013608410123
:10496600D600400135084101D50040013408410117
:10497600D400412C71304001B7004930B600F23006
:10498600B500CA30B40043014F084001BB004301E3
:104996004E084001BA0043014D084001B9004301E9
:1049A6004C084001B80090319D20A33140013708E2
:1049B6004301EF00400136084301EE00400135088F
:1049C6004301ED00400134084301EC007130400121
:1049D600B7004930B600F230B500CA30B400430122
:1049E6006F084001BB0043016E084001BA00430155
:1049F6006D084001B90043016C084001B8009031D0
:104A06009D20A331400137084101D70040013608F7
:104A16004101D600400135084101D5004001340866
:104A26004101D400412C43302706240425042604E2
:104A3600031D1E2D1F2DD12D430167084001D100F6
:104A4600430166084001D000430165084001CF00DC
:104A5600430164084001CE0044012F084001D500FF
:104A660044012E084001D40044012D084001D30022
:104A760044012C084001D200A9312E21A531400164
:104A86005108D9005008D8004F08D7004E08D60064
:104A96003330A3003830A200AA30A1003C30A00079
:104AA60043012F084001A70043012E084001A6003C
:104AB60043012D084001A50043012C084001A40034
:104AC6009B317C23A53140012308DD002208DC0050
:104AD6002108DB002008DA00AD311025A5310318C6
:104AE600752D772D8831E52871304001B7004930A2
:104AF600B600F230B500CA30B40043014F08400199
:104B0600BB0043014E084001BA0043014D08400175
:104B1600B90043014C084001B80090319D20A531F1
:104B2600400137084301EF00400136084301EE001B
:104B3600400135084301ED00400134084301EC0013
:104B460071304001B7004930B600F230B500CA30C6
:104B5600B40043016F084001BB0043016E084001E9
:104B6600BA0043016D084001B90043016C084001D9
:104B7600B80090319D20A531400137084101D7008A
:104B8600400136084101D600400135084101D500F3
:104B9600400134084101D4008731E02FFF3024055D
:104BA6004101DC00FF30440125054101DD00FF30F5
:104BB600440126054101DE007F30440127054101FD
:104BC600DF00DF1BF12D01305C0200305D3B16304B
:104BD6005E3B43305F3B031CF12DF32D88313D28AE
:104BE6000D304001B700A230B6004230B50060304B
:104BF600B40043014F084001BB0043014E08400189
:104C0600BA0043014D084001B90043014C08400178
:104C1600B80090319D20A531400137084301EF00CF
:104C2600400136084301EE00400135084301ED001E
:104C3600400134084301EC000D304001B700A230BA
:104C4600B6004230B5006030B40043016F08400141
:104C5600BB0043016E084001BA0043016D084001E4
:104C6600B90043016C084001B80090319D20A53180
:104C7600400137084101D700400136084101D600FE
:104C8600400135084101D500400134084101D400F6
:104C9600CF2D40015D088039DE005E08E7005D35F6
:104CA600DE005E08EE00DC1F592E5A2E5B2E6E14B7
:104CB6006E0803195F2E602E702E6E0A031D642E79
:104CC600652E6D2E0030DD000030DC000030DB008C
:104CD6000030DA00DC17DD01782E0030DD00003010
:104CE600DC000030DB000030DA0059088039DE00D5
:104CF6005E08E7065935DE005E08EF00D81F842EF1
:104D0600852E862E6F146F0803198A2E8B2E9B2EE6
:104D16006F0A031D8F2E902E982E0030D90000307A
:104D2600D8000030D7000030D600D817D901A32EFE
:104D36000030D9000030D8000030D7000030D6004F
:104D46005908580457045604031DAA2EAB2EC42E28
:104D56000030DD000030DC000030DB000030DA001F
:104D66008030DC047F30DD046708DE005E08DD0489
:104D76005D08D9005C08D8005B08D7005A08D60041
:104D8600FF2F6E08031DC82EC92ED22E0030D90063
:104D96000030D8000030D7000030D600FF2F6E0854
:104DA600DE00DF015F08E1006F085E02E000031C21
:104DB600E10360087F3EE8000030613DE9005D08E0
:104DC600E6005C08E5005B08E4005A08E3000030F2
:104DD600DD000030DC000030DB000030DA0000309F
:104DE600ED000030EC000030EB000030EA00EF018F
:104DF6003A2F6F080319002F012F1B2F0130E335BF
:104E0600E40DE50DE60D890B022F0130DA35DB0DD9
:104E1600DC0DDD0D890B092FED1F122F132F142F1B
:104E26005A140130EA35EB0DEC0DED0D890B152FFB
:104E360059086602031D292F58086502031D292FEC
:104E460057086402031D292F56086302031C2C2FE2
:104E56002D2F362F6D175608E3025708E43B5808E6
:104E6600E53B5908E63B0130DE005E08EF071A30E5
:104E76006F02031C3F2F402FFC2E66086504640456
:104E860063040319472F482F612F6A14612F0130DD
:104E9600DA35DB0DDC0DDD0D890B4B2FED1F542FA5
:104EA600552F562F5A140130EA35EB0DEC0DED0D4A
:104EB600890B572FFF30E807FF30E93DDC1F642FD1
:104EC600652F4A2FEF01ED1F692F6A2F862FFF30BE
:104ED6006A05DE00FF306B05DF00FF306C05E00081
:104EE6007F306D05E100610860045F045E0403190C
:104EF6007D2F7E2F812FEF01EF0A862F5A1C842FDC
:104F0600852F862F7E2F6F0803198A2F8B2FB32F9D
:104F16000130DA070030DB3D0030DC3D0030DD3D9E
:104F26005D1C962F972FB32F5A08DE005B08DF0013
:104F36005C08E0005D08E1000130E200E137E00CCA
:104F4600DF0CDE0CE20BA12F6108DD006008DC003F
:104F56005F08DB005E08DA000130E8070030E93D53
:104F66006908803ADE0080305E02031DBC2FFF30E8
:104F76006802031CBF2FC02FCD2FFF304001E80071
:104F86000030E9000030DD000030DC000030DB00DE
:104F96000030DA0040016908803ADE0080305E02A7
:104FA600031DD72F013068020318DA2FDB2FE72FF6
:104FB6004001E801E9010030DD000030DC0000308E
:104FC600DB000030DA00E70140016808DE005E0819
:104FD600EE006E1CEF2FF02FF22FDC17F62F7F302E
:104FE600DE005E08DC056E36DE005E08DD00670862
:0A4FF600DE005E08DD04BB2E08009B
:105134008731E227A831080042011D121D1608001C
:105144007C084401D4007B08D300080045016908A9
:10515400EC006808EB000800640080010131890B51
:10516400AF280034FE0012001E00FE0BB5280034E8
:10517400450169084401EA00450168084401E90061
:105184000800450169084401E40045016808440138
:10519400E3000800450169084401E200450168088C
:1051A4004401E1000800450169084401E6004501A5
:1051B40068084401E5000800450169084401E80065
:1051C400450168084401E7000800603051018D0082
:1051D4008F01910102309300920108004E010D10DD
:1051E400440169086A040319F828F928FE286A08A2
:1051F4008A0069080A00A8310800A0310020A831FB
:10520400A931DD21A831A831E720A831A931B6217F
:10521400A83198311920A8310800A831FF20A931FC
:105224008B170B1798311920A931A931B621A9314F
:10523400D230A9319321A9316B3044015606031DA4
:10524400242925291E29D230AA314522A931440115
:10525400D6011E298031372880304001D1065508F7
:10526400A3005408A2005308A1005208A00051084A
:10527400A7005008A6004F08A5004E08A4009B31C3
:105284007C23A93140012308D1002208D000210841
:10529400CF002008CE00080044014C08F7004B085A
:1052A400F6004A08F5004908F4007308F70072088C
:1052B400F6007108F5007008F400FF30F405FF30C3
:1052C400F505FF30F6057F30F7057708F30076081B
:1052D400F2007508F1007408F0000800F800F40109
:1052E400F5017008F200F3017208F6007308F70084
:1052F400781C7D297E2982297608F4077708F53DF4
:105304000130F635F70D890B83290310F80C780862
:10531400031D8D298E297A297508F1007408F0007F
:1053240008004501EA004401DB015B0845016A0706
:10533400E80068088600023087000108E90044019B
:105344005B08A03E860002308700450169088100A1
:105354000130E80068084401DB0716305B02031CD7
:10536400B429B5299729080041018C018D018E01CA
:105374008F019201930198019A019F0142018C01CE
:105384008D018E018F019001920193019401950189
:1053940012309600970103309800C43091004E01FA
:1053A4000D101714F8304501E8002E30E900A8313B
:1053B400BA20A93108004001980199019A013F30AF
:1053C4009200803093006F309400AF307E01CE00A5
:1053D4007030C3003730B800C401B901CF01BA013D
:1053E400C501D0013730BB00F030C600FF30D1001A
:1053F4003F30BC00F030C700FF30D2000F30A700B0
:1054040016307D01CB00080044015A08413E860055
:1054140002308700810142011D1D112A122A1E2A11
:1054240044015A08413E8600023087008114640812
:105434008A0063080A00AA3142019D1C222A232AF9
:105444002F2A44015A08413E860002308700011584
:1054540062088A0061080A00AA3144015A08413EE0
:1054640086000230870001080319392A3A2A412AA2
:1054740045016C088A006B080A00AA31442A873166
:10548400E227AA3108004501E90044016B08031929
:105494004C2A4D2A472A4E01191A512A522A672AA0
:1054A40045016908860002308700010842019A001C
:1054B40001304501E80068084401EB000130450172
:1054C400E80068084101EF07862A191245016908B6
:1054D4008600023087000108E80044015F08A03E0E
:1054E4008600023087004501680881000130E80029
:1054F40068084401DF0716305F02031C822A832AEE
:10550400842ADF010130EB024E0119160800031052
:10551400720D730DF4007408FA007A08031D932ABF
:10552400942A9D2A0030F3000030F2000030F1008C
:105534000030F000FC2A7008F4007108F5007208CD
:10554400F6007308F7001F30F736F60CF50CF40C70
:10555400890BA62A7408F8007808F900F217FF30BE
:10556400F005FF30F105FF30F2050030F305963009
:10557400FA02FA1FBE2ABF2AD72A7A08803A973E2F
:105584000318C52AC62AC72A942A0130F336F20C16
:10559400F10CF00C890BC82A0130F4007408FA07E6
:1055A400031DD52AD62AC72AEC2A20307A02031CE6
:1055B400DC2ADD2AE72A942A0130F035F10DF20DB8
:1055C400F30D890BDF2A0130FA027A08031DEB2A56
:1055D400EC2ADE2A79080319F02AF12AFC2AF009B8
:1055E400F109F209F309F00A0319F10A0319F20A9D
:1055F4000319F30A080023084101EC0040012208C2
:105604004101EB00400121084101EA00400120086A
:105614004101E90068084001B70041016708400101
:10562400B600410166084001B5004101650840012A
:10563400B40041016C084001BB0041016B0840010A
:10564400BA0041016A084001B900410169084001FA
:10565400B80090319D20AA31400137084201E7008B
:10566400400136084201E600400135084201E500E8
:10567400400134084201E400430137084001A70017
:10568400430136084001A600430135084001A50046
:10569400430134084001A400430123084001A3004E
:1056A400430122084001A200430121084001A10056
:1056B400430120084001A0009B317C23AA31400112
:1056C4002308BB002208BA002108B9002008B8004A
:1056D40042014B084001B70042014A084001B600AC
:1056E400420149084001B500420148084001B400A4
:1056F40090319D20AA314001803160285108430136
:10570400E300400150084301E20040014F08430117
:10571400E10040014E084301E00063084001D1006C
:10572400430162084001D000430161084001CF00F9
:10573400430160084001CE0043013B084001D5000D
:1057440043013A084001D400430139084001D30021
:10575400430138084001D200A9312E21AB31400168
:1057640051084201CF00400150084201CE004001DF
:105774004F084201CD0040014E084201CC004301D4
:1057840033084001B700430132084001B600430129
:1057940031084001B500430130084001B400430121
:1057A40037084001BB00430136084001BA004301F9
:1057B40035084001B900430134084001B800903174
:1057C4009D20AB3140013708D1003608D0003508A0
:1057D400CF003408CE0043013F084001D500430107
:1057E4003E084001D40043013D084001D300430179
:1057F4003C084001D200A9312E21AB314001AC312B
:10580400032C51084301E300400150084301E20026
:1058140040014F084301E10040014E084301E0000C
:1058240042014F084001B70042014E084001B60052
:1058340042014D084001B50042014C084001B4004A
:10584400430137084001BB00430136084001BA0058
:10585400430135084001B900430134084001B80050
:1058640090319D20AC3140013708D1003608D0007A
:105874003508CF003408CE00430163084001D50049
:10588400430162084001D400430161084001D30090
:10589400430160084001D200A9312E21AC314001FE
:1058A40051084201EF00400150084201EE0040015E
:1058B4004F084201ED0040014E084201EC00430153
:1058C40043084001B700430142084001B6004301C8
:1058D40041084001B500430140084001B4004201C1
:1058E4006F084001BB0042016E084001BA0042014A
:1058F4006D084001B90042016C084001B8009031C4
:105904009D20AC314001AE31472E3708A700360840
:10591400A6003508A5003408A4009B317C23AC31D3
:10592400400123084201D300400122084201D20071
:10593400400121084201D100400120084201D00069
:10594400430157084001B700430156084001B6001F
:10595400430155084001B500430154084001B40017
:10596400430157084001BB00430156084001BA00F7
:10597400430155084001B900430154084001B800EF
:1059840090319D20AC31400137084101E8004001CD
:1059940036084101E700400135084101E6004001B5
:1059A40034084101E5003F304001A3001930A20052
:1059B4009930A1009A30A000430157084001B70074
:1059C400430156084001B600430155084001B500A3
:1059D400430154084001B400420153084001BB0094
:1059E400420152084001BA00420151084001B90085
:1059F400420150084001B80090319D20AC31400173
:105A04003708A7003608A6003508A5003408A40006
:105A14009B317C23AC314001AA31FD2A0030400186
:105A24005605DE0000305705DF0080305805E000E1
:105A34007F305905E100610860045F045E04031DC2
:105A4400242D252D2D2D0030D9000030D800003014
:105A5400D7000030D60000305A05DE0000305B0568
:105A6400DF0080305C05E0007F305D05E100610807
:105A740060045F045E04031D402D412D492D003058
:105A8400DD000030DC000030DB000030DA00D91F1C
:105A94004C2D4D2D652D0030DE000030DF00003030
:105AA400E0008030E1005608DE025708DF3B58086A
:105AB400E03B5908E13B6108D9006008D8005F0861
:105AC400D7005E08D600DD1F682D692D812D0030BA
:105AD400DE000030DF000030E0008030E1005A08D2
:105AE400DE025B08DF3B5C08E03B5D08E13B6108EC
:105AF400DD006008DC005F08DB005E08DA0080304F
:105B0400D9068030DD065D085902031D932D5C081B
:105B14005802031D932D5B085702031D932D5A0849
:105B240056020318962D972D992D03109A2D0314C0
:105B34000800F80078080319A02DA12DB52DF31F36
:105B4400A42DA52DB52D7009FA007109FB00720969
:105B5400FC007309FD00FA0A0319FB0A0319FC0A85
:105B64000319FD0ABD2D7308FD007208FC007108BD
:105B7400FB007008FA007308720471047004031DBA
:105B8400C42DC52DCE2D0030F3000030F2000030BE
:105B9400F1000030F000462E9630F4007408F9004D
:105BA400DE2D0130F4007408F9070130FD36FC0CD9
:105BB400FB0CFA0C890BD82DFE307D05031DE32D5B
:105BC400E42DD32DF82D0130F4007408F9070130C9
:105BD400FA070030FB3D0030FC3D0030FD3D013054
:105BE400FD36FC0CFB0CFA0C890BF22DFF307D0505
:105BF400031DFD2DFE2DE52D082E0130F902013087
:105C0400FA35FB0DFC0DFD0D890B022EFC1B0B2E32
