:020000040000FA
:0400000080313728EC
:100008007E1480310B1F09280A2835284E01191E35
:100018000E280F281A280F1E122813281A28400104
:100028005F088A005E080A0080313528991E1D285D
:100038001E2829288F1E21282228292840015D08EA
:100048008A005C080A0080313528171C2C282D28C6
:1000580035280D1C3028312835288131E32180319D
:1000680035287E100900803139288030840081309D
:10007800850020308600003087001E30823105223E
:100088008031F001F101F201F301F401F501F6010B
:100098003E30840000308500183082310B228031D8
:1000A8007E1040018131B9294E0199129C304001DE
:1000B800E3000030E4008231172280314E0119122A
:1000C8005E304001E3000130E400823111228031CA
:1000D800083042019F0090309D0024309E00083077
:1000E8009B009C013D304001E3000230E400823176
:1000F8002322803135304001E3000230E4008231B0
:100108001D22803139304001E3000230E4008231A1
:1001180029228031F001F601F5011630FA007A083B
:100128004001E200F301F201F1014E0199160800C5
:1001380073083E3E86008701810142011D1DA528E6
:10014800A628B12873083E3E860087018114400125
:100158005B088A005A080A00803142019D1CB528B4
:10016800B628C12873083E3E860087010115400164
:1001780059088A0058080A00803173083E3E8600F4
:10018800870101080319C928CA28D128400157083E
:100198008A0056080A008031D42881319E21803196
:1001A8000800F800400162080319DB28DC28D6287B
:1001B8004E01191AE028E128F128780886008701FD
:1001C800010842019A000130F70077084001E20077
:1001D8000130F7007708F5070B291912780886000F
:1001E80087010108F70076084E3E860087017708E8
:1001F80081000130F7007708F60708307602031C03
:10020800062907290829F60101304001E2024E01BA
:10021800191608004001980199019A013F3092008F
:10022800F03093006F309400AF307E01CE00703014
:10023800C3003730B800C401B901CF01BA01C50104
:10024800D0013730BB00F030C600FF30D1003F305E
:10025800BC00F030C700FF30D2000F30A7001630C6
:100268007D01CB00080041018C018D018E018F01B9
:100278009201930198019A019F0142018C018D011D
:100288008E018F0190019201930194019501123022
:100298009600970103309800C43091004E010D106C
:1002A80017143E304001E3000230E40082312F226F
:1002B800813108001630400162020318642965295B
:1002C8007D297508283E86008701010842019A00A9
:1002D8000130F7007708F50716307502031C7529F9
:1002E80076297729F5010130F70077084001E20700
:1002F8007F294E011912080068346F346C34693450
:1003080077346934733431346B343034303468348E
:100318006F346C3461346D3475346E3464346B34DA
:100328003034303468346F346C3461346D3475343F
:100338006E34643442011908F9007908F4006F300A
:100348007406031DA829A929AD2928308031D52094
:10035800813108307302031CB229B329B429F3018F
:100368000130F9007908F10708008131D321813182
:100378008B170B17803158208131203086000030D0
:100388008700663084000030850008304001E500B1
:1003980016001A00E50BCC29D02980313728813185
:1003A800F221813181310E2181318131FC2181316C
:1003B80081313721813180315820813108004E0147
:1003C8000D104001600861040319EB29EC29F1299B
:1003D80061088A0060080A00813108004F0196010F
:1003E8009701980199019A019B019C019D010800C0
:1003F800603051018D008F0191010230930092010C
:100408000800FE0012001E00FE0B062A00346400DD
:1004180080010131890B0C2A003440016408DF0097
:100428006308DE00080040016408DD006308DC00A2
:10043800080040016408D9006308D800080040019A
:100448006408DB006308DA00080040016408D7008C
:100458006308D600080040016408E1006308E00072
:10046800080042011D121D16080081319E218231AB
:0604780008000800080066
:020000040001F9
:0A000E00EC3FFF3F9F3FFF3FFF3F25
:00000001FF
