:020000040000FA
:0400000080313728EC
:100008007E1480310B1F09280A2835284E01191E35
:100018000E280F281A280F1E122813281A28400104
:100028004F088A004E080A0080313528991E1D287D
:100038001E2829288F1E21282228292840014D08FA
:100048008A004C080A0080313528171C2C282D28D6
:1000580035280D1C3028312835288131A4218031DC
:1000680035287E10090080313928B330840081306A
:10007800850052308600003087000A308131D02157
:100088008031F001F101F201F301F401F5012030B2
:1000980084000030850026308131D62180317E10E1
:1000A800400181311D294E0199129530F700003029
:1000B800F8008131E22180314E0119124030F700F9
:1000C8000130F8008131DC218031083042019F0085
:1000D80090309D0024309E0008309B009C010A301F
:1000E800F7000230F8008131EE2180310030F7004E
:1000F8000230F8008131E82180310430F700023005
:10010800F8008131F4218031F001F501F401163055
:10011800F9007908FC00F301F201F1014E0199168A
:1001280008007308363E86008701810142011D1DC3
:100138009E289F28AA287308363E860087018114C6
:1001480040014B088A004A080A00803142019D1C80
:10015800AE28AF28BA287308363E860087010115F5
:10016800400149088A0048080A0080317308363E71
:100178008600870101080319C228C328CA2840013C
:1001880047088A0046080A008031CD2881317B2142
:10019800803108004001980199019A013F3092008E
:1001A80070309300EF309400EF307E01CE00503075
:1001B800C3003730B800C401B901CF01BA01C50185
:1001C800D0013730BB00F030C600FF30D1003F30DF
:1001D800BC00F030C700FF30D2000F309F000D3058
:1001E8007D01CB00080041018C018D018E018F013A
:1001F8009201930198019A019F0142018C018D019E
:100208008E018F01900192019301940195011230A2
:100218009600970103309800C43091004E010D10EC
:1002280017140B30F7000230F8008131FA218031C1
:1002380008008131942181318B170B1780315720A9
:10024800813152308600003087005C3084000030F5
:1002580085000830FB0016001A00FB0B2F2980319F
:10026800F72081318231082281315C30813160216F
:10027800813133298031372816307C02031845290B
:1002880046295D297408203E86008701010842013D
:100298009A000130F6007608F40716307402031C41
:1002A800562957295829F4010130F6007608FC0729
:1002B8005F294E0119120800F900FA017A08790736
:1002C800F7007708860087010108F8007A08203EC1
:1002D80086008701780881000130F7007708FA075F
:1002E80016307A02031C79297A296229080042010A
:1002F8001908F60073083E3E8600870176088100DB
:100308000130F6007608F30708307302031C8D29C4
:100318008E298F29F3010130F6007608F1070800CD
:100328008131BD2181318031CE2081318131C72198
:1003380081318031F72081318031572081310800A7
:100348004E010D104001500851040319AC29AD2984
:10035800B22951088A0050080A008131080068341F
:100368006F346C3469347734693473343134FF341E
:1003780000344F0196019701980199019A019B0158
:100388009C019D010800603051018D008F01910191
:100398000230930092010800FE0012001E00FE0BBE
:1003A800D1290034640080010131890BD729003438
:1003B80078084001CF007708CE000800780840018F
:1003C800CD007708CC00080078084001C9007708FC
:1003D800C800080078084001CB007708CA00080068
:1003E80078084001C7007708C6000800780840016F
:1003F800D1007708D000080042011D121D16080020
:1004080081317B21823108005A3008000800080039
:020000040001F9
:0A000E00EC3FFF3F9F3FFF3FFF3F25
:00000001FF
